:0300000002028574
:0C028500787FE4F6D8FD758107020003C5
:1000F400492077616E7420746F206272696E672084
:10010400006F75742074686520736563726574206C
:1001140020006F66206E617475726520616E6420C4
:100124002020006170706C79207468656D20666FA2
:10013400722020007468652068617070696E657350
:1001440073206F66006D616E2E4920646F6E277494
:10015400206B6E6F77006F6620616E792062657424
:1001640074657220732D002D657276696365207441
:100174006F206F6666657200666F72207468652012
:1001840073686F727420742D002D696D6520776516
:100194002061726520696E20200074686520776F85
:1001A400726C642E202020202020002D2D2D5468D8
:0C01B4006F6D617320456469736F6E000D
:1001C000EB93FF1202567F647E001201D3D2A27F0E
:0301D000327E007C
:1001D300D3EF9400EE940040147D727C00ED1D700B
:0D01E300011CED4C70F7EF1F70E61E80E36D
:0101F00022EC
:070219001202457F057E0083
:10022000D3EF9400EE940040147D0A7C00ED1D7025
:0D023000011CED4C70F7EF1F70E61E80E31F
:01023D00229E
:0E027700E4F580D2A7C2A7F580D2A6C2A622C7
:100267007580FFC293D294C29500D295E580332260
:07023E007F011202457F80E1
:1002450012026740FBC293C294D2958F8000C2957B
:010255002286
:1002560012026740FBD293C294D2958F8000C2955A
:010266002275
:0C0291007F011202457F057E0002022062
:1001F100C2957F381202197F0E1202197F06120270
:10020100451F7E001202207F011202197F80120217
:08021100457F057E000202207A
:100003001202771201F1120291E4FBC2A29000F4F2
:100013001201C00BBB10F47FC0120245E4FBC2A265
:100023009001051201C00BBB10F412023EE4FBC2A7
:10003300A2EB9001161201C10BBB10F37FC0120299
:1000430045E4FBC2A2EB9001271201C10BBB10F3E5
:100053007F801202457F01120245E4FBC2A2EB90AE
:1000630001381201C10BBB10F37FC0120245E4FB40
:10007300C2A2EB9001491201C10BBB10F312023E65
:10008300E4FBC2A2EB90015A1201C10BBB10F37F38
:10009300C0120245E4FBC2A2EB90016B1201C10B3B
:1000A300BB10F312023EE4FBC2A2EB90017C1201EF
:1000B300C10BBB10F37FC0120245E4FBC2A2EB905D
:1000C300018D1201C10BBB10F312023EE4FBC2A26D
:1000D300EB90019E1201C10BBB10F37FC0120245CE
:1000E300E4FBC2A2EB9001AF1201C10BBB10F38082
:0100F300FE0E
:00000001FF
