:03000000020003F8
:0C000300787FE4F6D8FD75812102004AE8
:10012A000F0873686F703130343230383032382EFD
:0E013A00000B1774616F62616F2E636F6D00B2
:10014900D3EF9400EE940040147D727C00ED1D7095
:0D015900011CED4C70F7EF1F70E61E80E3F7
:010166002276
:0B0101002BF8E6FF1201787F0A7E0059
:10010C00D3EF9400EE940040147D0A7C00ED1D703A
:0D011C00011CED4C70F7EF1F70E61E80E334
:0101290022B3
:0E019900E4F580D2A7C2A7F580D2A6C2A622A6
:100189007580FFC293D294C29500D295E58033223F
:1001670012018940FBC293C294D2958F8000C29539
:010177002265
:1001780012018940FBD293C294D2958F8000C29518
:010188002254
:0C01A7007F011201677F057E0002010C41
:1000D2007F381201677F057E0012010C7F0F12012B
:1000E200677F057E0012010C7F061201671F7E00EA
:0F00F20012010C7F011201677F057E0002010CD5
:10008F001201991200D21201A77F9012016712017B
:10009F0008E4FB74081201010BBB0EF77FD01201AD
:1000AF0067120108E4FB74171201010BBB0AF7E496
:1000BF00FB7F181201677FF47E011201490BBB1001
:0300CF00F080FEC0
:10000F0002008FE493A3F8E493A34003F68001F278
:10001F0008DFF48029E493A3F85407240CC8C333F2
:10002F00C4540F4420C8834004F456800146F6DFC1
:10003F00E4800B010204081020408090012AE47E26
:10004F00019360BCA3FF543F30E509541FFEE493B6
:10005F00A360010ECF54C025E060A840B8E493A37D
:10006F00FAE493A3F8E493A3C8C582C8CAC583CAA8
:10007F00F0A3C8C582C8CAC583CADFE9DEE780BE60
:0101480000B6
:00000001FF
