:1000000059C060C05FC05EC05DC05CC05BC05AC00C
:1000100059C058C057C056C055C054C053C052C034
:1000200051C050C04FC063AF6D6B6A6663906FAFD5
:1000300060636B6B6B6B6668AA60636D6D6D6D6BF7
:100040006A8F6D8D636D6D6D6D6FB0606874706D6E
:100050006B6A40498F6B8363905050706F404BAD1B
:10006000800000008C1280118410980FB80EE40DEF
:100070001C0D600CAE0B060B680AD2094609C008BD
:100080004208CC075C07F2068E063006D7058305CA
:100090003405E904A30460042104E603AE037903F4
:1000A0004703180320004000800000010002000404
:1000B0000008001011241FBECFE5D4E0DEBFCDBF85
:1000C00033D065C09DCF20E030E008C0E7EEF3E01C
:1000D0003197F1F700C000002F5F3F4F2817390715
:1000E000A8F30895879914C087EA91E60197F1F77C
:1000F00000C0000080B3992787FD9095809590956A
:10010000592F551F5527551F40E0252F342F02C06A
:1001100020E030E0C90108951FBC89E08EBDB99A86
:10012000C1988F98979A08951F93CF93DF93F4DF28
:1001300010E4D8DF0097E9F3C0E0D0E021C0822FBF
:100140008F71229526952770882359F090E0880FAB
:10015000991F8E599F4FFC01859194919BBD8ABD3B
:100160001FBDE22FF0E0EE0FFF1FEC55FF4F259172
:100170003491C901A8DF1FBC88E090E0A4DF21967C
:10018000FE01EA5DFF4F2491222399F2D8CFF89423
:02019000FFCF9F
:00000001FF
